{
  "contractName": "Company",
  "abi": [
    {
      "constant": true,
      "inputs": [],
      "name": "owner",
      "outputs": [
        {
          "name": "",
          "type": "address"
        }
      ],
      "payable": false,
      "stateMutability": "view",
      "type": "function"
    },
    {
      "inputs": [
        {
          "name": "_name",
          "type": "string"
        },
        {
          "name": "_number",
          "type": "string"
        },
        {
          "name": "_owner",
          "type": "address"
        }
      ],
      "payable": false,
      "stateMutability": "nonpayable",
      "type": "constructor"
    },
    {
      "anonymous": false,
      "inputs": [
        {
          "indexed": false,
          "name": "_owner",
          "type": "address"
        },
        {
          "indexed": false,
          "name": "number",
          "type": "string"
        }
      ],
      "name": "Registered",
      "type": "event"
    },
    {
      "constant": false,
      "inputs": [],
      "name": "Register",
      "outputs": [],
      "payable": false,
      "stateMutability": "nonpayable",
      "type": "function"
    },
    {
      "constant": true,
      "inputs": [],
      "name": "getArticlesOfIncorporation",
      "outputs": [
        {
          "name": "",
          "type": "string"
        }
      ],
      "payable": false,
      "stateMutability": "view",
      "type": "function"
    },
    {
      "constant": false,
      "inputs": [
        {
          "name": "_recordString",
          "type": "string"
        }
      ],
      "name": "setArticlesOfIncorporation",
      "outputs": [
        {
          "name": "",
          "type": "bool"
        }
      ],
      "payable": false,
      "stateMutability": "nonpayable",
      "type": "function"
    }
  ],
  "bytecode": "0x6060604052341561000f57600080fd5b6040516106ac3803806106ac8339810160405280805182019190602001805182019190602001805190602001909190505060008173ffffffffffffffffffffffffffffffffffffffff1614156100a457336000806101000a81548173ffffffffffffffffffffffffffffffffffffffff021916908373ffffffffffffffffffffffffffffffffffffffff1602179055506100e5565b806000806101000a81548173ffffffffffffffffffffffffffffffffffffffff021916908373ffffffffffffffffffffffffffffffffffffffff1602179055505b82600290805190602001906100fb92919061011b565b50816001908051906020019061011292919061011b565b505050506101c0565b828054600181600116156101000203166002900490600052602060002090601f016020900481019282601f1061015c57805160ff191683800117855561018a565b8280016001018555821561018a579182015b8281111561018957825182559160200191906001019061016e565b5b509050610197919061019b565b5090565b6101bd91905b808211156101b95760008160009055506001016101a1565b5090565b90565b6104dd806101cf6000396000f300606060405260043610610062576000357c0100000000000000000000000000000000000000000000000000000000900463ffffffff16806319e5bf3a146100675780638da5cb5b1461007c5780639ad418ad146100d1578063dc9a7d041461015f575b600080fd5b341561007257600080fd5b61007a6101d4565b005b341561008757600080fd5b61008f610309565b604051808273ffffffffffffffffffffffffffffffffffffffff1673ffffffffffffffffffffffffffffffffffffffff16815260200191505060405180910390f35b34156100dc57600080fd5b6100e461032e565b6040518080602001828103825283818151815260200191508051906020019080838360005b83811015610124578082015181840152602081019050610109565b50505050905090810190601f1680156101515780820380516001836020036101000a031916815260200191505b509250505060405180910390f35b341561016a57600080fd5b6101ba600480803590602001908201803590602001908080601f016020809104026020016040519081016040528093929190818152602001838380828437820191505050505050919050506103d6565b604051808215151515815260200191505060405180910390f35b6001600560006101000a81548160ff021916908360038111156101f357fe5b02179055507fb3eccf73f39b1c07947c780b2b39df2a1bb058b4037b0a42d0881ca1a028a1326000809054906101000a900473ffffffffffffffffffffffffffffffffffffffff166001604051808373ffffffffffffffffffffffffffffffffffffffff1673ffffffffffffffffffffffffffffffffffffffff168152602001806020018281038252838181546001816001161561010002031660029004815260200191508054600181600116156101000203166002900480156102f85780601f106102cd576101008083540402835291602001916102f8565b820191906000526020600020905b8154815290600101906020018083116102db57829003601f168201915b5050935050505060405180910390a1565b6000809054906101000a900473ffffffffffffffffffffffffffffffffffffffff1681565b6103366103f8565b60048054600181600116156101000203166002900480601f0160208091040260200160405190810160405280929190818152602001828054600181600116156101000203166002900480156103cc5780601f106103a1576101008083540402835291602001916103cc565b820191906000526020600020905b8154815290600101906020018083116103af57829003601f168201915b5050505050905090565b600081600490805190602001906103ee92919061040c565b5060019050919050565b602060405190810160405280600081525090565b828054600181600116156101000203166002900490600052602060002090601f016020900481019282601f1061044d57805160ff191683800117855561047b565b8280016001018555821561047b579182015b8281111561047a57825182559160200191906001019061045f565b5b509050610488919061048c565b5090565b6104ae91905b808211156104aa576000816000905550600101610492565b5090565b905600a165627a7a7230582021ac56a77f92a646135154baf1d207546a96eee2398552eec4fbca60391d5fa10029",
  "source": "pragma solidity ^0.4.18;\r\n\r\ncontract Company {\r\n\r\n    enum RegistrationStatus {Undefined, Registered, Approved, Expired} \r\n    \r\n    address public owner; //owner account address (20 bytes)\r\n    string private number;\r\n    string private name;\r\n    uint private dateRegistered; //unix time\r\n    string private articlesOfIncorporation; // the actual record data should be part of IPFS\r\n    RegistrationStatus private registrationStatus;\r\n\r\n    mapping (address => mapping(address => bool)) proxies; // A list of proxies that can read the record.\r\n    \r\n    event Registered(address _owner, string number);\r\n\r\n    function Company(string _name, string _number, address _owner) public {\r\n        if (_owner == 0) {\r\n            owner = msg.sender; // msg.sender is contract caller (address of contract creator)\r\n            } \r\n        else {\r\n            owner = _owner;\r\n        }\r\n        name = _name;\r\n        number = _number;\r\n    }\r\n\r\n    function Register() public{\r\n        registrationStatus = RegistrationStatus.Registered;\r\n        emit Registered(owner,number);\r\n    }\r\n   \r\n    function getArticlesOfIncorporation() public constant returns (string) {\r\n        return articlesOfIncorporation;\r\n    }\r\n\r\n    function setArticlesOfIncorporation(string _recordString) public returns (bool) {\r\n        articlesOfIncorporation = _recordString;\r\n        return true;\r\n    }\r\n}\r\n",
  "sourcePath": "C:\\Develop\\BLOCKCHAIN_DAY\\Hackathon\\Code\\contracts\\Company.sol",
  "compiler": {
    "name": "solc",
    "version": "0.4.21+commit.dfe3193c.Emscripten.clang"
  },
  "schemaVersion": "2.0.0",
  "updatedAt": "2018-04-18T17:22:03.267Z"
}