{
  "contractName": "Company",
  "abi": [
    {
      "constant": true,
      "inputs": [],
      "name": "owner",
      "outputs": [
        {
          "name": "",
          "type": "address"
        }
      ],
      "payable": false,
      "stateMutability": "view",
      "type": "function"
    },
    {
      "inputs": [],
      "payable": true,
      "stateMutability": "payable",
      "type": "constructor"
    },
    {
      "anonymous": false,
      "inputs": [
        {
          "indexed": false,
          "name": "_owner",
          "type": "address"
        },
        {
          "indexed": false,
          "name": "number",
          "type": "bytes32"
        }
      ],
      "name": "Registered",
      "type": "event"
    },
    {
      "anonymous": false,
      "inputs": [
        {
          "indexed": true,
          "name": "previousOwner",
          "type": "address"
        },
        {
          "indexed": true,
          "name": "newOwner",
          "type": "address"
        }
      ],
      "name": "OwnershipTransferred",
      "type": "event"
    },
    {
      "constant": true,
      "inputs": [],
      "name": "test",
      "outputs": [
        {
          "name": "",
          "type": "string"
        }
      ],
      "payable": false,
      "stateMutability": "pure",
      "type": "function"
    },
    {
      "constant": false,
      "inputs": [
        {
          "name": "_number",
          "type": "bytes32"
        },
        {
          "name": "_name",
          "type": "string"
        },
        {
          "name": "_companyType",
          "type": "uint256"
        }
      ],
      "name": "RegisterCompany",
      "outputs": [
        {
          "name": "success",
          "type": "bool"
        }
      ],
      "payable": false,
      "stateMutability": "nonpayable",
      "type": "function"
    },
    {
      "constant": true,
      "inputs": [
        {
          "name": "_number",
          "type": "bytes32"
        }
      ],
      "name": "lookupCompany",
      "outputs": [
        {
          "name": "",
          "type": "bytes32"
        },
        {
          "name": "",
          "type": "string"
        },
        {
          "name": "",
          "type": "uint256"
        },
        {
          "name": "",
          "type": "uint256"
        }
      ],
      "payable": false,
      "stateMutability": "view",
      "type": "function"
    },
    {
      "constant": false,
      "inputs": [
        {
          "name": "newOwnerAddress",
          "type": "address"
        }
      ],
      "name": "transferOwnership",
      "outputs": [],
      "payable": false,
      "stateMutability": "nonpayable",
      "type": "function"
    },
    {
      "constant": false,
      "inputs": [],
      "name": "removeContract",
      "outputs": [],
      "payable": false,
      "stateMutability": "nonpayable",
      "type": "function"
    }
  ],
  "bytecode": "0x606060405260008054600160a060020a033316600160a060020a031991821681179092556001805490911690911790556108328061003e6000396000f3006060604052600436106100775763ffffffff7c01000000000000000000000000000000000000000000000000000000006000350416638251d963811461007c578063844da7fb146101205780638da5cb5b1461018c578063f2fde38b146101bb578063f8a8fd6d146101dc578063fe389e0914610266575b600080fd5b341561008757600080fd5b610092600435610279565b604051848152604081018390526060810182905260806020820181815290820185818151815260200191508051906020019080838360005b838110156100e25780820151838201526020016100ca565b50505050905090810190601f16801561010f5780820380516001836020036101000a031916815260200191505b509550505050505060405180910390f35b341561012b57600080fd5b610178600480359060446024803590810190830135806020601f82018190048102016040519081016040528181529291906020840183838082843750949650509335935061049392505050565b604051901515815260200160405180910390f35b341561019757600080fd5b61019f610624565b604051600160a060020a03909116815260200160405180910390f35b34156101c657600080fd5b6101da600160a060020a0360043516610633565b005b34156101e757600080fd5b6101ef61067d565b60405160208082528190810183818151815260200191508051906020019080838360005b8381101561022b578082015183820152602001610213565b50505050905090810190601f1680156102585780820380516001836020036101000a031916815260200191505b509250505060405180910390f35b341561027157600080fd5b6101da6106bf565b60006102836106e6565b60008061028e6106f8565b600086815260036020526040908190209060c090519081016040529081600082015460001916600019168152602001600182018054600181600116156101000203166002900480601f0160208091040260200160405190810160405280929190818152602001828054600181600116156101000203166002900480156103555780601f1061032a57610100808354040283529160200191610355565b820191906000526020600020905b81548152906001019060200180831161033857829003601f168201915b5050509183525050600282015460209091019060ff16600481111561037657fe5b600481111561038157fe5b81526003828101546020830152600483015460409092019160ff16908111156103a657fe5b60038111156103b157fe5b8152602001600582018054600181600116156101000203166002900480601f01602080910402602001604051908101604052809291908181526020018280546001816001161561010002031660029004801561044e5780601f106104235761010080835404028352916020019161044e565b820191906000526020600020905b81548152906001019060200180831161043157829003601f168201915b5050505050815250509050806000015181602001518260400151600481111561047357fe5b8360800151600381111561048357fe5b9299919850965090945092505050565b600061049d6106f8565b60015433600160a060020a039081169116146104b857600080fd5b60028054600181016104ca8382610745565b50600091825260209091200185905560c060405190810160409081528682526020820186905281018460048111156104fe57fe5b600481111561050957fe5b8152426020820152604001600181526020016020604051908101604090815260008083529190925287815260036020522090915081908151815560208201518160010190805161055d92916020019061076e565b50604082015160028201805460ff1916600183600481111561057b57fe5b021790555060608201518160030155608082015160048201805460ff191660018360038111156105a757fe5b021790555060a0820151816005019080516105c692916020019061076e565b50506001547fb8142d42f05d95abf0a6570799774d59276e49ea32a04d9a4ec316ea4a6886bc9150600160a060020a031686604051600160a060020a03909216825260208201526040908101905180910390a1506001949350505050565b600154600160a060020a031681565b60015433600160a060020a0390811691161461064e57600080fd5b6001805473ffffffffffffffffffffffffffffffffffffffff1916600160a060020a0392909216919091179055565b6106856106e6565b60408051908101604052600b81527f48656c6c6f20576f726c64000000000000000000000000000000000000000000602082015290505b90565b60015433600160a060020a039081169116146106da57600080fd5b33600160a060020a0316ff5b60206040519081016040526000815290565b60c060405190810160405260008152602081016107136106e6565b815260200160008152602001600081526020016000600381111561073357fe5b81526020016107406106e6565b905290565b815481835581811511610769576000838152602090206107699181019083016107ec565b505050565b828054600181600116156101000203166002900490600052602060002090601f016020900481019282601f106107af57805160ff19168380011785556107dc565b828001600101855582156107dc579182015b828111156107dc5782518255916020019190600101906107c1565b506107e89291506107ec565b5090565b6106bc91905b808211156107e857600081556001016107f25600a165627a7a72305820bc5862bf2b65b06c6f4a03fdb12ee9bf6c23c5ae144b2c5fd2383f9076955c520029",
  "source": "pragma solidity ^0.4.18;\r\nimport \"zeppelin-solidity/contracts/ownership/Ownable.sol\";\r\n\r\ncontract Company is Ownable {\r\n    address public owner; //owner account address (20 bytes) the Gov \r\n\r\n    enum CompanyType {Undefined, SoleProprietorship, Corporation, Trust, Association} \r\n    enum RegistrationStatus {Undefined, Registered, Approved, Expired} \r\n\r\n    struct CompanyDetails{\r\n        bytes32 number;\r\n        string name;\r\n        CompanyType companyType;\r\n        uint dateRegistered; //unix time\r\n        RegistrationStatus registrationStatus;\r\n        string articlesOfIncorporation; // the actual record data should be part of IPFS\r\n        //TODO add employees\r\n    }\r\n\r\n    event Registered(address _owner, bytes32 number);\r\n\r\n    bytes32[] private companiesList; //list of company numbers so we can enumerate them\r\n    mapping(bytes32 => CompanyDetails) private companiesDetailsList; //access by company number key and get the other details\r\n\r\n    modifier onlyOwner()  {\r\n        require(msg.sender == owner);\r\n        _;\r\n    }\r\n\r\n    function Company() public payable{\r\n        owner = msg.sender; // msg.sender is contract caller (address of contract creator)\r\n    }\r\n\r\n    function test() public pure returns (string) {\r\n        return (\"Hello World\");\r\n    }\r\n\r\n    function RegisterCompany(bytes32 _number, string _name, uint _companyType) public onlyOwner returns(bool success){\r\n        //register a new company \r\n        //TODO: check for duplicates  require(!isCompanyExists(_number));\r\n        companiesList.push(_number);\r\n        CompanyDetails memory companyDetails = CompanyDetails(_number, _name, CompanyType(_companyType), now, RegistrationStatus.Registered, \"\");\r\n        companiesDetailsList[_number] = companyDetails;\r\n        \r\n        emit Registered(owner, _number);\r\n\r\n        return true;\r\n    }\r\n\r\n    function lookupCompany(bytes32 _number) public constant returns(bytes32, string, uint, uint) {\r\n        CompanyDetails memory companyDetails = companiesDetailsList[_number];\r\n        return (companyDetails.number, companyDetails.name, uint(companyDetails.companyType), uint(companyDetails.registrationStatus));\r\n    }\r\n    \r\n    function transferOwnership(address newOwnerAddress)  public onlyOwner() {\r\n        owner = newOwnerAddress;\r\n    }\r\n\r\n    function removeContract() public onlyOwner() {\r\n        selfdestruct(msg.sender);\r\n    }\r\n\r\n    //TODO SECTION\r\n    // function getArticlesOfIncorporation() public constant returns (string) {\r\n    //     //TODO: implement getArticlesOfIncorporation\r\n    //     return \"\";\r\n    // }\r\n\r\n    // function setArticlesOfIncorporation(string _recordString) public returns (bool) {\r\n    //     //TODO: implement setArticlesOfIncorporation\r\n    //     return true;\r\n    // }\r\n}",
  "sourcePath": "C:\\Develop\\BLOCKCHAIN_DAY\\Hackathon\\Code\\contracts\\Company.sol",
  "compiler": {
    "name": "solc",
    "version": "0.4.21+commit.dfe3193c.Emscripten.clang"
  },
  "schemaVersion": "2.0.0",
  "updatedAt": "2018-04-20T01:47:28.553Z"
}