{
  "contractName": "Company",
  "abi": [
    {
      "constant": true,
      "inputs": [],
      "name": "owner",
      "outputs": [
        {
          "name": "",
          "type": "address"
        }
      ],
      "payable": false,
      "stateMutability": "view",
      "type": "function"
    },
    {
      "inputs": [],
      "payable": false,
      "stateMutability": "nonpayable",
      "type": "constructor"
    },
    {
      "anonymous": false,
      "inputs": [
        {
          "indexed": false,
          "name": "_owner",
          "type": "address"
        },
        {
          "indexed": false,
          "name": "number",
          "type": "string"
        }
      ],
      "name": "Registered",
      "type": "event"
    },
    {
      "constant": false,
      "inputs": [],
      "name": "Register",
      "outputs": [],
      "payable": false,
      "stateMutability": "nonpayable",
      "type": "function"
    },
    {
      "constant": true,
      "inputs": [],
      "name": "getArticlesOfIncorporation",
      "outputs": [
        {
          "name": "",
          "type": "string"
        }
      ],
      "payable": false,
      "stateMutability": "view",
      "type": "function"
    },
    {
      "constant": false,
      "inputs": [
        {
          "name": "_recordString",
          "type": "string"
        }
      ],
      "name": "setArticlesOfIncorporation",
      "outputs": [
        {
          "name": "",
          "type": "bool"
        }
      ],
      "payable": false,
      "stateMutability": "nonpayable",
      "type": "function"
    },
    {
      "constant": true,
      "inputs": [],
      "name": "getName",
      "outputs": [
        {
          "name": "",
          "type": "string"
        }
      ],
      "payable": false,
      "stateMutability": "view",
      "type": "function"
    },
    {
      "constant": false,
      "inputs": [
        {
          "name": "_name",
          "type": "string"
        }
      ],
      "name": "setName",
      "outputs": [
        {
          "name": "",
          "type": "bool"
        }
      ],
      "payable": false,
      "stateMutability": "nonpayable",
      "type": "function"
    }
  ],
  "bytecode": "0x6060604052341561000f57600080fd5b336000806101000a81548173ffffffffffffffffffffffffffffffffffffffff021916908373ffffffffffffffffffffffffffffffffffffffff1602179055506106c08061005e6000396000f300606060405260043610610078576000357c0100000000000000000000000000000000000000000000000000000000900463ffffffff16806317d7de7c1461007d57806319e5bf3a1461010b5780638da5cb5b146101205780639ad418ad14610175578063c47f002714610203578063dc9a7d0414610278575b600080fd5b341561008857600080fd5b6100906102ed565b6040518080602001828103825283818151815260200191508051906020019080838360005b838110156100d05780820151818401526020810190506100b5565b50505050905090810190601f1680156100fd5780820380516001836020036101000a031916815260200191505b509250505060405180910390f35b341561011657600080fd5b61011e610395565b005b341561012b57600080fd5b6101336104ca565b604051808273ffffffffffffffffffffffffffffffffffffffff1673ffffffffffffffffffffffffffffffffffffffff16815260200191505060405180910390f35b341561018057600080fd5b6101886104ef565b6040518080602001828103825283818151815260200191508051906020019080838360005b838110156101c85780820151818401526020810190506101ad565b50505050905090810190601f1680156101f55780820380516001836020036101000a031916815260200191505b509250505060405180910390f35b341561020e57600080fd5b61025e600480803590602001908201803590602001908080601f01602080910402602001604051908101604052809392919081815260200183838082843782019150505050505091905050610597565b604051808215151515815260200191505060405180910390f35b341561028357600080fd5b6102d3600480803590602001908201803590602001908080601f016020809104026020016040519081016040528093929190818152602001838380828437820191505050505050919050506105b9565b604051808215151515815260200191505060405180910390f35b6102f56105db565b60028054600181600116156101000203166002900480601f01602080910402602001604051908101604052809291908181526020018280546001816001161561010002031660029004801561038b5780601f106103605761010080835404028352916020019161038b565b820191906000526020600020905b81548152906001019060200180831161036e57829003601f168201915b5050505050905090565b6001600560006101000a81548160ff021916908360038111156103b457fe5b02179055507fb3eccf73f39b1c07947c780b2b39df2a1bb058b4037b0a42d0881ca1a028a1326000809054906101000a900473ffffffffffffffffffffffffffffffffffffffff166001604051808373ffffffffffffffffffffffffffffffffffffffff1673ffffffffffffffffffffffffffffffffffffffff168152602001806020018281038252838181546001816001161561010002031660029004815260200191508054600181600116156101000203166002900480156104b95780601f1061048e576101008083540402835291602001916104b9565b820191906000526020600020905b81548152906001019060200180831161049c57829003601f168201915b5050935050505060405180910390a1565b6000809054906101000a900473ffffffffffffffffffffffffffffffffffffffff1681565b6104f76105db565b60048054600181600116156101000203166002900480601f01602080910402602001604051908101604052809291908181526020018280546001816001161561010002031660029004801561058d5780601f106105625761010080835404028352916020019161058d565b820191906000526020600020905b81548152906001019060200180831161057057829003601f168201915b5050505050905090565b600081600290805190602001906105af9291906105ef565b5060019050919050565b600081600490805190602001906105d19291906105ef565b5060019050919050565b602060405190810160405280600081525090565b828054600181600116156101000203166002900490600052602060002090601f016020900481019282601f1061063057805160ff191683800117855561065e565b8280016001018555821561065e579182015b8281111561065d578251825591602001919060010190610642565b5b50905061066b919061066f565b5090565b61069191905b8082111561068d576000816000905550600101610675565b5090565b905600a165627a7a7230582087bc72a0500085e6457f991c385d83cc2f458f9e34039e233d08606c8213ebd70029",
  "source": "pragma solidity ^0.4.18;\n\ncontract Company {\n\n    enum RegistrationStatus {Undefined, Registered, Approved, Expired} \n    \n    address public owner; //owner account address (20 bytes)\n    string private number;\n    string private name;\n    uint private dateRegistered; //unix time\n    string private articlesOfIncorporation; // the actual record data should be part of IPFS\n    RegistrationStatus private registrationStatus;\n\n    mapping (address => mapping(address => bool)) proxies; // A list of proxies that can read the record.\n    \n    event Registered(address _owner, string number);\n\n    function Company() public {\n        owner = msg.sender; // msg.sender is contract caller (address of contract creator)\n    }\n\n    function Register() public{\n        registrationStatus = RegistrationStatus.Registered;\n        emit Registered(owner,number);\n    }\n   \n    function getArticlesOfIncorporation() public constant returns (string) {\n        return articlesOfIncorporation;\n    }\n\n    function setArticlesOfIncorporation(string _recordString) public returns (bool) {\n        articlesOfIncorporation = _recordString;\n        return true;\n    }\n\n    function getName() public constant returns (string) {\n        return name;\n    }\n\n    function setName(string _name) public returns (bool) {\n        name = _name;\n        return true;\n    }\n\n\n}",
  "sourcePath": "/Users/mahdi/Documents/MICROSOFT_INTERNAL_PROJECTS/My Projects/BLOCKCHAIN/GCHACK/gcbc/contracts/Company.sol",
  "compiler": {
    "name": "solc",
    "version": "0.4.21+commit.dfe3193c.Emscripten.clang"
  },
  "schemaVersion": "2.0.0",
  "updatedAt": "2018-04-19T21:05:10.261Z"
}