{
  "contractName": "Company",
  "abi": [
    {
      "constant": true,
      "inputs": [],
      "name": "owner",
      "outputs": [
        {
          "name": "",
          "type": "address"
        }
      ],
      "payable": false,
      "stateMutability": "view",
      "type": "function"
    },
    {
      "anonymous": false,
      "inputs": [
        {
          "indexed": false,
          "name": "_owner",
          "type": "address"
        },
        {
          "indexed": false,
          "name": "number",
          "type": "string"
        }
      ],
      "name": "Registered",
      "type": "event"
    },
    {
      "constant": false,
      "inputs": [
        {
          "name": "_name",
          "type": "string"
        },
        {
          "name": "_number",
          "type": "string"
        },
        {
          "name": "_owner",
          "type": "address"
        }
      ],
      "name": "Business",
      "outputs": [],
      "payable": false,
      "stateMutability": "nonpayable",
      "type": "function"
    },
    {
      "constant": false,
      "inputs": [],
      "name": "Register",
      "outputs": [],
      "payable": false,
      "stateMutability": "nonpayable",
      "type": "function"
    },
    {
      "constant": true,
      "inputs": [],
      "name": "getArticlesOfIncorporation",
      "outputs": [
        {
          "name": "",
          "type": "string"
        }
      ],
      "payable": false,
      "stateMutability": "view",
      "type": "function"
    },
    {
      "constant": false,
      "inputs": [
        {
          "name": "_recordString",
          "type": "string"
        }
      ],
      "name": "setArticlesOfIncorporation",
      "outputs": [
        {
          "name": "",
          "type": "bool"
        }
      ],
      "payable": false,
      "stateMutability": "nonpayable",
      "type": "function"
    }
  ],
  "bytecode": "0x6060604052341561000f57600080fd5b61067f8061001e6000396000f30060606040526004361061006d576000357c0100000000000000000000000000000000000000000000000000000000900463ffffffff16806319e5bf3a146100725780638da5cb5b146100875780639ad418ad146100dc578063dc9a7d041461016a578063e003a319146101df575b600080fd5b341561007d57600080fd5b61008561029e565b005b341561009257600080fd5b61009a6103d3565b604051808273ffffffffffffffffffffffffffffffffffffffff1673ffffffffffffffffffffffffffffffffffffffff16815260200191505060405180910390f35b34156100e757600080fd5b6100ef6103f8565b6040518080602001828103825283818151815260200191508051906020019080838360005b8381101561012f578082015181840152602081019050610114565b50505050905090810190601f16801561015c5780820380516001836020036101000a031916815260200191505b509250505060405180910390f35b341561017557600080fd5b6101c5600480803590602001908201803590602001908080601f016020809104026020016040519081016040528093929190818152602001838380828437820191505050505050919050506104a0565b604051808215151515815260200191505060405180910390f35b34156101ea57600080fd5b61029c600480803590602001908201803590602001908080601f0160208091040260200160405190810160405280939291908181526020018383808284378201915050505050509190803590602001908201803590602001908080601f0160208091040260200160405190810160405280939291908181526020018383808284378201915050505050509190803573ffffffffffffffffffffffffffffffffffffffff169060200190919050506104c2565b005b6001600560006101000a81548160ff021916908360038111156102bd57fe5b02179055507fb3eccf73f39b1c07947c780b2b39df2a1bb058b4037b0a42d0881ca1a028a1326000809054906101000a900473ffffffffffffffffffffffffffffffffffffffff166001604051808373ffffffffffffffffffffffffffffffffffffffff1673ffffffffffffffffffffffffffffffffffffffff168152602001806020018281038252838181546001816001161561010002031660029004815260200191508054600181600116156101000203166002900480156103c25780601f10610397576101008083540402835291602001916103c2565b820191906000526020600020905b8154815290600101906020018083116103a557829003601f168201915b5050935050505060405180910390a1565b6000809054906101000a900473ffffffffffffffffffffffffffffffffffffffff1681565b61040061059a565b60048054600181600116156101000203166002900480601f0160208091040260200160405190810160405280929190818152602001828054600181600116156101000203166002900480156104965780601f1061046b57610100808354040283529160200191610496565b820191906000526020600020905b81548152906001019060200180831161047957829003601f168201915b5050505050905090565b600081600490805190602001906104b89291906105ae565b5060019050919050565b60008173ffffffffffffffffffffffffffffffffffffffff16141561052657336000806101000a81548173ffffffffffffffffffffffffffffffffffffffff021916908373ffffffffffffffffffffffffffffffffffffffff160217905550610567565b806000806101000a81548173ffffffffffffffffffffffffffffffffffffffff021916908373ffffffffffffffffffffffffffffffffffffffff1602179055505b826002908051906020019061057d9291906105ae565b5081600190805190602001906105949291906105ae565b50505050565b602060405190810160405280600081525090565b828054600181600116156101000203166002900490600052602060002090601f016020900481019282601f106105ef57805160ff191683800117855561061d565b8280016001018555821561061d579182015b8281111561061c578251825591602001919060010190610601565b5b50905061062a919061062e565b5090565b61065091905b8082111561064c576000816000905550600101610634565b5090565b905600a165627a7a72305820970375c905203340481c969e623a9395e2c9c796c7f9566b5366fe56dcc368770029",
  "source": "pragma solidity ^0.4.18;\r\n\r\ncontract Company {\r\n\r\n    enum RegistrationStatus {Undefined, Registered, Approved, Expired} \r\n    \r\n    address public owner; //owner account address (20 bytes)\r\n    string private number;\r\n    string private name;\r\n    uint private dateRegistered; //unix time\r\n    string private articlesOfIncorporation; // the actual record data should be part of IPFS\r\n    RegistrationStatus private registrationStatus;\r\n\r\n    mapping (address => mapping(address => bool)) proxies; // A list of proxies that can read the record.\r\n    \r\n    event Registered(address _owner, string number);\r\n\r\n    function Business(string _name, string _number, address _owner) public {\r\n        if (_owner == 0) {\r\n            owner = msg.sender; // msg.sender is contract caller (address of contract creator)\r\n            } \r\n        else {\r\n            owner = _owner;\r\n        }\r\n        name = _name;\r\n        number = _number;\r\n    }\r\n\r\n    function Register() public{\r\n        registrationStatus = RegistrationStatus.Registered;\r\n        emit Registered(owner,number);\r\n    }\r\n   \r\n    function getArticlesOfIncorporation() public constant returns (string) {\r\n        return articlesOfIncorporation;\r\n    }\r\n\r\n    function setArticlesOfIncorporation(string _recordString) public returns (bool) {\r\n        articlesOfIncorporation = _recordString;\r\n        return true;\r\n    }\r\n}\r\n",
  "sourcePath": "C:\\Develop\\BLOCKCHAIN_DAY\\Hackathon\\Code\\contracts\\Company.sol",
  "compiler": {
    "name": "solc",
    "version": "0.4.21+commit.dfe3193c.Emscripten.clang"
  },
  "schemaVersion": "2.0.0",
  "updatedAt": "2018-04-18T17:03:50.213Z"
}