{
  "contractName": "ElectronicHealthRecord",
  "abi": [
    {
      "inputs": [],
      "payable": false,
      "stateMutability": "nonpayable",
      "type": "constructor"
    },
    {
      "anonymous": false,
      "inputs": [
        {
          "indexed": false,
          "name": "_from",
          "type": "address"
        },
        {
          "indexed": false,
          "name": "_proxyAddress",
          "type": "address"
        }
      ],
      "name": "AddProxy",
      "type": "event"
    },
    {
      "constant": true,
      "inputs": [],
      "name": "getRecord",
      "outputs": [
        {
          "name": "",
          "type": "string"
        }
      ],
      "payable": false,
      "stateMutability": "view",
      "type": "function"
    },
    {
      "constant": false,
      "inputs": [
        {
          "name": "_recordString",
          "type": "string"
        }
      ],
      "name": "setRecord",
      "outputs": [
        {
          "name": "",
          "type": "bool"
        }
      ],
      "payable": false,
      "stateMutability": "nonpayable",
      "type": "function"
    },
    {
      "constant": false,
      "inputs": [
        {
          "name": "_proxyAddress",
          "type": "address"
        }
      ],
      "name": "addProxy",
      "outputs": [
        {
          "name": "",
          "type": "bool"
        }
      ],
      "payable": false,
      "stateMutability": "nonpayable",
      "type": "function"
    }
  ],
  "bytecode": "0x6060604052341561000f57600080fd5b336000806101000a81548173ffffffffffffffffffffffffffffffffffffffff021916908373ffffffffffffffffffffffffffffffffffffffff16021790555060206040519081016040528060008152506002908051906020019061007592919061007b565b50610120565b828054600181600116156101000203166002900490600052602060002090601f016020900481019282601f106100bc57805160ff19168380011785556100ea565b828001600101855582156100ea579182015b828111156100e95782518255916020019190600101906100ce565b5b5090506100f791906100fb565b5090565b61011d91905b80821115610119576000816000905550600101610101565b5090565b90565b6108078061012f6000396000f300606060405260043610610057576000357c0100000000000000000000000000000000000000000000000000000000900463ffffffff16806323b11d8d1461005c5780633e0a0099146100ad578063f18ad6fb14610122575b600080fd5b341561006757600080fd5b610093600480803573ffffffffffffffffffffffffffffffffffffffff169060200190919050506101b0565b604051808215151515815260200191505060405180910390f35b34156100b857600080fd5b610108600480803590602001908201803590602001908080601f01602080910402602001604051908101604052809392919081815260200183838082843782019150505050505091905050610438565b604051808215151515815260200191505060405180910390f35b341561012d57600080fd5b61013561056a565b6040518080602001828103825283818151815260200191508051906020019080838360005b8381101561017557808201518184015260208101905061015a565b50505050905090810190601f1680156101a25780820380516001836020036101000a031916815260200191505b509250505060405180910390f35b60008060009054906101000a900473ffffffffffffffffffffffffffffffffffffffff1673ffffffffffffffffffffffffffffffffffffffff163373ffffffffffffffffffffffffffffffffffffffff16141580156102b75750600160008060009054906101000a900473ffffffffffffffffffffffffffffffffffffffff1673ffffffffffffffffffffffffffffffffffffffff1673ffffffffffffffffffffffffffffffffffffffff16815260200190815260200160002060003373ffffffffffffffffffffffffffffffffffffffff1673ffffffffffffffffffffffffffffffffffffffff16815260200190815260200160002060009054906101000a900460ff16155b156102c157610433565b60018060008060009054906101000a900473ffffffffffffffffffffffffffffffffffffffff1673ffffffffffffffffffffffffffffffffffffffff1673ffffffffffffffffffffffffffffffffffffffff16815260200190815260200160002060008473ffffffffffffffffffffffffffffffffffffffff1673ffffffffffffffffffffffffffffffffffffffff16815260200190815260200160002060006101000a81548160ff0219169083151502179055507f132e8cac15823e7f707d62c1449579f7e2f54e57cfe91e5e61247026052e21c66000809054906101000a900473ffffffffffffffffffffffffffffffffffffffff1683604051808373ffffffffffffffffffffffffffffffffffffffff1673ffffffffffffffffffffffffffffffffffffffff1681526020018273ffffffffffffffffffffffffffffffffffffffff1673ffffffffffffffffffffffffffffffffffffffff1681526020019250505060405180910390a1600190505b919050565b60008060009054906101000a900473ffffffffffffffffffffffffffffffffffffffff1673ffffffffffffffffffffffffffffffffffffffff163373ffffffffffffffffffffffffffffffffffffffff161415801561053f5750600160008060009054906101000a900473ffffffffffffffffffffffffffffffffffffffff1673ffffffffffffffffffffffffffffffffffffffff1673ffffffffffffffffffffffffffffffffffffffff16815260200190815260200160002060003373ffffffffffffffffffffffffffffffffffffffff1673ffffffffffffffffffffffffffffffffffffffff16815260200190815260200160002060009054906101000a900460ff16155b1561054957610565565b816002908051906020019061055f929190610722565b50600190505b919050565b6105726107a2565b6000809054906101000a900473ffffffffffffffffffffffffffffffffffffffff1673ffffffffffffffffffffffffffffffffffffffff163373ffffffffffffffffffffffffffffffffffffffff16141580156106775750600160008060009054906101000a900473ffffffffffffffffffffffffffffffffffffffff1673ffffffffffffffffffffffffffffffffffffffff1673ffffffffffffffffffffffffffffffffffffffff16815260200190815260200160002060003373ffffffffffffffffffffffffffffffffffffffff1673ffffffffffffffffffffffffffffffffffffffff16815260200190815260200160002060009054906101000a900460ff16155b156106815761071f565b60028054600181600116156101000203166002900480601f0160208091040260200160405190810160405280929190818152602001828054600181600116156101000203166002900480156107175780601f106106ec57610100808354040283529160200191610717565b820191906000526020600020905b8154815290600101906020018083116106fa57829003601f168201915b505050505090505b90565b828054600181600116156101000203166002900490600052602060002090601f016020900481019282601f1061076357805160ff1916838001178555610791565b82800160010185558215610791579182015b82811115610790578251825591602001919060010190610775565b5b50905061079e91906107b6565b5090565b602060405190810160405280600081525090565b6107d891905b808211156107d45760008160009055506001016107bc565b5090565b905600a165627a7a723058208795498c52d1d2a641404fc0fa87fbef44d37ab74ff0d420e398cc209efe92520029",
  "source": "pragma solidity ^0.4.18;\r\n\r\ncontract ElectronicHealthRecord {\r\n    address owner; // The person the record is about.\r\n    mapping (address => mapping(address => bool)) proxies; // A list of proxies that can read the record.\r\n\r\n    string recordString; // the actual record data\r\n    \r\n    function ElectronicHealthRecord() public {\r\n        owner = msg.sender; // assign ownership to the person who deployed the contract\r\n        recordString = \"\"; // set the string to empty\r\n    }\r\n\r\n    modifier onlyOwnerOrProxy {\r\n        if (msg.sender != owner && !proxies[owner][msg.sender]) return;\r\n        _;\r\n    }\r\n\r\n    modifier recordIsEmpty {\r\n        if (bytes(recordString).length > 0) return;\r\n        _;\r\n    }\r\n\r\n    function getRecord() public view onlyOwnerOrProxy returns (string) {\r\n        return recordString;\r\n    }\r\n\r\n    function setRecord(string _recordString) public onlyOwnerOrProxy returns (bool) {\r\n        recordString = _recordString;\r\n        return true;\r\n    }\r\n\r\n    event AddProxy(address _from, address _proxyAddress);\r\n    function addProxy(address _proxyAddress) public onlyOwnerOrProxy returns (bool) {\r\n        proxies[owner][_proxyAddress] = true;\r\n        emit AddProxy(owner, _proxyAddress);\r\n        return true;\r\n    }\r\n}\r\n",
  "sourcePath": "C:\\Users\\rwarner\\source\\repos\\creds2\\contracts\\ElectronicHealthRecord.sol",
  "compiler": {
    "name": "solc",
    "version": "0.4.21+commit.dfe3193c.Emscripten.clang"
  },
  "schemaVersion": "2.0.0",
  "updatedAt": "2018-04-17T17:12:00.209Z"
}